:100000000C942A000C9447000C9447000C94470071
:100010000C9447000C9447000C9447000C94470044
:100020000C9447000C9447000C94F4000C94470087
:100030000C9447000C9447000C9447000C94470024
:100040000C9447000C9447000C9447000C94470014
:100050000C94470011241FBECFE5D8E0DEBFCDBF12
:1000600010E0A0E6B0E0E8E5F3E002C005900D92F4
:10007000A037B107D9F720E0A0E7B0E001C01D929A
:10008000AB37B207E1F70E948A010C94AA010C94E5
:10009000000081B1887F0895880F82B984E486BF0B
:1000A00085B3836085BB08950F931F93CF9306B6E6
:1000B00007FE33C0C62F8C010E944900803A29F107
:1000C00028F4803651F0803861F023C0883BA9F0D5
:1000D000803CB9F0883AE9F40BC084EC86BF80E03C
:1000E0001DC083B1F801808384EC86BF81E016C017
:1000F000C3B984E886BF80E011C084E886BF80E091
:100100000DC084EC86BF82E009C084EC86BF80E02D
:1001100005C084EC86BF80E001C080E0CF911F91D4
:100120000F91089581B3806281BB80E48FBD8AE125
:100130008EBD89E690E097BD86BD8FB58F7B8FBD64
:1001400082B38F7D82BB089510927A00109279005D
:1001500089E690E097BD86BD8FB580648FBD089518
:100160008FB58F7B8FBD82B38F7D82BB10927A005B
:10017000109279000895909179009F5F9093790093
:1001800080917A00282F30E0F901EE0FFF1FE20F77
:10019000F31FE05AFF4F4281941728F11092790023
:1001A0002F5F3F4F2530310514F48F5F01C080E091
:1001B00080937A0090E0FC01EE0FFF1F8E0F9F1FCF
:1001C000FC01E05AFF4F80819181009739F48FB58F
:1001D0008F7B8FBD82B38F7D82BB089597BD86BD17
:1001E0008FB580648FBD08951F920F920FB60F9246
:1001F00011242F933F934F935F936F937F938F932C
:100200009F93AF93BF93EF93FF938091770090916B
:100210007800019690937800809377008091760023
:10022000882359F0809175008F5F80937500823329
:1002300020F0109275000E94BB0060E084E790E01F
:100240000E945400813069F580917400813081F002
:1002500018F08A3AD9F025C01092730010927600F7
:100260000E94B00088B38C7F88BB1092720019C0C6
:1002700081E080937300109276000E94B00088B3F2
:100280008C7F826088BB109272000BC082E08093EA
:10029000730088B3826088BB81E0809376000E94FF
:1002A000A40080917300823021F5809177009091B5
:1002B00078002091700030917100821B930B8A3F6F
:1002C0009105B8F08091770090917800909371003B
:1002D000809370009091720081E089278093720072
:1002E000882321F088B3816088BB03C088B38E7FE8
:1002F00088BBFF91EF91BF91AF919F918F917F91BB
:100300006F915F914F913F912F910F900FBE0F9082
:100310001F90189587B3836087BB88B38C7F88BB99
:100320000E9492000E94B0008AE083BF8CE78CBFDD
:1003300089B7826089BF80E20E944C00789485B7BB
:100340008F7885BF85B7806885BF889585B78F779B
:0803500085BFF8CFF894FFCF40
:100358006900025D00024E0002460004000004002D
:00000001FF
