:100000000C942A000C9487000C943C000C943C0047
:100010000C943C000C943C000C943C000C943C0070
:100020000C943C000C943C000C94BC000C943C00E0
:100030000C943C000C943C000C943C000C943C0050
:100040000C94A4000C943C000C943C000C943C00D8
:100050000C943C0011241FBECFE5D8E0DEBFCDBF1D
:1000600020E0A0E6B0E001C01D92A337B207E1F79F
:100070000E94E4010C941F020C94000081B1887F5F
:100080000895880F82B984E486BF85B3836085BBF9
:1000900008950F931F93CF9306B607FE33C0C62F64
:1000A0008C010E943E00803A29F128F4803651F0FC
:1000B000803861F023C0883BA9F0803CB9F0883AD1
:1000C000E9F40BC084EC86BF80E01DC083B1F80169
:1000D000808384EC86BF81E016C0C3B984E886BF04
:1000E00080E011C084E886BF80E00DC084EC86BF4C
:1000F00082E009C084EC86BF80E005C084EC86BF46
:1001000080E001C080E0CF911F910F9108951F9270
:100110000F920FB60F9211248F939F9380916F00CF
:1001200090917000892B49F481E08093720088ECF3
:1001300090E09093700080936F009F918F910F904B
:100140000FBE0F901F9018951F920F920FB60F922F
:1001500011242F938F939F9384B195B1853F914044
:1001600018F081E0809371009F918F912F910F90F3
:100170000FBE0F901F9018951F920F920FB60F92FF
:1001800011242F933F934F935F936F937F938F939C
:100190009F93AF93BF93EF93FF9380916B009091E8
:1001A0006C00019690936C0080936B0080916F00BF
:1001B00090917000892B49F080916F0090917000B0
:1001C00001979093700080936F0080916D009091E3
:1001D0006E00892B49F080916D0090916E0001971F
:1001E00090936E0080936D0080916A00882391F057
:1001F00080916D0090916E00892B61F48091680070
:100200008F5F80936800883228F01092680086B172
:10021000806486B96091690087E690E00E94490099
:10022000813081F5809167008130F1F018F08A3AD1
:1002300019F128C0109266001092690010926A00AD
:10024000109272001092710010926E0010926D0068
:10025000109265008CEB90E09BBD8ABD88B38E7FC9
:1002600088BB109264000EC081E0809366001092FB
:10027000690080936A0006C082E08093660081E096
:1002800080936A0080917200811104C08091710096
:10029000882329F080916600811103C003C080E0AB
:1002A00001C081E0811106C090916600923021F476
:1002B00091E003C091E001C090E0882391F021E03B
:1002C000209369002091650021110BC021E020934B
:1002D000650020916B0030916C0030936300209397
:1002E0006200992309F454C02CE231E03BBD2ABDE1
:1002F000882339F090917200911106C04EE350E0CE
:1003000005C04EE350E002C04AEF50E020916B0080
:1003100030916C006091600070916100261B370B7A
:1003200024173507B8F020916B0030916C003093A2
:100330006100209360002091640091E092279093E7
:100340006400992321F098B3916098BB03C098B3DF
:100350009E7F98BB882339F180916B0090916C004F
:100360002091620030916300821B930B8838934187
:10037000D0F0109272001092710080ED97E090938F
:100380006E0080936D0010926900109265000BC0A2
:100390008CEB90E09BBD8ABD88B38E7F88BB1092AA
:1003A000640010926500FF91EF91BF91AF919F9112
:1003B0008F917F916F915F914F913F912F910F900E
:1003C0000FBE0F901F90189587B3816087BB88B3CD
:1003D0008E7F88BB81B38B7F81BB82B3846082BBFD
:1003E00085B7836085BF8BB780648BBF81E487B995
:1003F0008BE886B981B3806281BB82E88FBD8AE1D8
:100400008EBD83EC99E097BD86BD8CEB90E09BBDE3
:100410008ABD8AE083BF8CE78CBF89B7826089BFC1
:1004200080E10E944100789485B78F7885BF85B7B9
:10043000806885BF889585B78F7785BFF8CFF8949A
:02044000FFCFEC
:00000001FF
