:100000000C942A000C94BD010C9447000C944700FA
:100010000C9447000C9447000C9447000C94470044
:100020000C9447000C9447000C94D3010C944700A7
:100030000C9447000C9447000C9447000C94470024
:100040000C9447000C9447000C9447000C94470014
:100050000C94470011241FBECFE5D8E0DEBFCDBF12
:1000600010E0A0E6B0E0EAE0F5E002C005900D92F5
:10007000A83EB107D9F720E0A8EEB0E001C01D927C
:10008000AF3EB207E1F70E9448020C9483020C9441
:10009000000084EA86BF80E197E206B607FC02C052
:1000A0000197D9F7089583B984E886BF80E197E284
:1000B00006B607FC02C00197D9F7089584E886BF09
:1000C00080E197E206B607FC02C00197D9F783B139
:1000D000089581B1887F089582B3886082BB83E0F0
:1000E0008A95F1F7000082B3877F82BB81E28A950F
:1000F000F1F70000089598B3907F8F70892B88BB2B
:100100000E946C00089584E986BF80E18A95F1F72A
:1001100000C00895CF93C82F82B38E7F82BB8C2FEF
:1001200082958F700E947B008C2F8F700E947B00C5
:1001300083EF91E00197F1F700C00000CF9108959F
:10014000CF93C82F82B3816082BB8C2F82958F7032
:100150000E947B008C2F8F700E947B0082E48A9526
:10016000F1F700C0CF910895CF93DF93EC0103C066
:1001700021960E94A00088818111FACFDF91CF9152
:100180000895CF93DF93EA01811104C06F70862F29
:10019000806803C06F70862F806C0E948A00CE0139
:1001A0000E94B400DF91CF910895813089F018F05A
:1001B0008230D9F0089540E650E060E080E00E948F
:1001C000C10041E750E060E081E00E94C100089575
:1001D00042E850E060E080E00E94C10043E950E066
:1001E00060E081E00E94C100089544EA50E060E0D0
:1001F00080E00E94C10045EB50E060E081E00E9499
:10020000C100089587B38F6087BB81B3896081BBCC
:1002100088B3807F88BB82B3867F82BB87EA91E602
:100220000197F1F700C0000082B38E7F82BB88B3D4
:10023000807F836088BB0E946C0081EE94E0019710
:10024000F1F700C0000088B3807F836088BB0E9404
:100250006C0092E49A95F1F700C088B3807F8360C8
:1002600088BB0E946C0082E48A95F1F700C088B3D5
:10027000807F826088BB0E946C0092E49A95F1F7BF
:1002800000C088E20E948A008CE00E948A0081E01F
:100290000E948A0081EE94E00197F1F700C000000F
:1002A00086E00E948A00089582E080B981B18C7F47
:1002B00081B985B3836085BB0895CF93DF93C82F41
:1002C000D62F0E9449000E946900883021F00E94C8
:1002D000830080E01AC08C2F880F0E9453000E9478
:1002E0006900883121F00E94830080E00EC08D2FCC
:1002F0000E9453000E946900883221F00E9483000E
:1003000080E003C00E94830081E0DF91CF910895D7
:10031000CF93C82F682F80E10E945D0181EE94E0A9
:100320000197F1F700C000006C2F80E20E945D0190
:10033000CF910895CF93C82F0E9449000E94690071
:10034000883021F00E9483008FEF15C08C2F90E041
:10035000880F991F81600E9453000E9469008034B9
:1003600021F00E9483008FEF06C00E945E00C82F1C
:100370000E9483008C2FCF9108951F920F920FB689
:100380000F9211248F938091ED00811106C081E0BE
:100390008093EE0082E38093ED008F910F900FBE6B
:1003A0000F901F9018951F920F920FB60F92112465
:1003B0002F933F934F935F936F937F938F939F936D
:1003C000AF93BF93EF93FF938091EB009091EC007C
:1003D00001969093EC008093EB008091ED008823D0
:1003E00029F08091ED0081508093ED008091EE0026
:1003F0008823A9F01092EE008091EA00811106C0D6
:1004000081E08093EA000E94880105C01092EA0012
:1004100080E00E9488018091EA000E94D5008091CE
:10042000EA00813021F58091EB009091EC00209161
:10043000E8003091E900821B930B843F9140B8F0B3
:100440008091EB009091EC009093E9008093E8009C
:1004500080E10E949A01813051F482E08093EA00A9
:100460008AEA0E9488018091EA000E94D500FF91EB
:10047000EF91BF91AF919F918F917F916F915F911C
:100480004F913F912F910F900FBE0F901F90189595
:1004900081B38B7F81BB82B38B7F82BB85B7836047
:1004A00085BF8BB780648BBF8AE083BF8CE78CBF2E
:1004B00089B7826089BF0E9402010E94540178942A
:1004C00046EC50E060E080E00E94C10047ED50E063
:1004D00060E081E00E94C1002FED83E994E02150AB
:1004E00080409040E1F700C0000080E00E94D5000D
:1004F00085B78F7885BF85B7806885BF889585B7B4
:0A0500008F7785BFF8CFF894FFCF86
:10050A002020494B4B452041524D45525420202032
:10051A00005472796B6B20666F722041524D4552BE
:10052A0045002020202041524D45525420202020B1
:10053A00202000202020204855533A204F4B2020CD
:10054A00202020002020212120414C41524D2021F1
:10055A00212020200020204855533A20494B4B4562
:10056A00204F4B202000536D6172746875732041CF
:10057A006C61726D20200053746172746572206F11
:08058A0070702E2E2E202000BF
:00000001FF
